{
  "contractName": "Faucet",
  "abi": [
    {
      "inputs": [
        {
          "internalType": "address",
          "name": "",
          "type": "address"
        }
      ],
      "name": "funders",
      "outputs": [
        {
          "internalType": "bool",
          "name": "",
          "type": "bool"
        }
      ],
      "stateMutability": "view",
      "type": "function",
      "constant": true
    },
    {
      "inputs": [
        {
          "internalType": "uint256",
          "name": "",
          "type": "uint256"
        }
      ],
      "name": "lutfunders",
      "outputs": [
        {
          "internalType": "address",
          "name": "",
          "type": "address"
        }
      ],
      "stateMutability": "view",
      "type": "function",
      "constant": true
    },
    {
      "inputs": [],
      "name": "numOfFunders",
      "outputs": [
        {
          "internalType": "uint256",
          "name": "",
          "type": "uint256"
        }
      ],
      "stateMutability": "view",
      "type": "function",
      "constant": true
    },
    {
      "inputs": [],
      "name": "owner",
      "outputs": [
        {
          "internalType": "address",
          "name": "",
          "type": "address"
        }
      ],
      "stateMutability": "view",
      "type": "function",
      "constant": true
    },
    {
      "inputs": [],
      "name": "test3",
      "outputs": [
        {
          "internalType": "uint256",
          "name": "",
          "type": "uint256"
        }
      ],
      "stateMutability": "pure",
      "type": "function",
      "constant": true
    },
    {
      "inputs": [],
      "name": "testNum",
      "outputs": [
        {
          "internalType": "uint256",
          "name": "",
          "type": "uint256"
        }
      ],
      "stateMutability": "view",
      "type": "function",
      "constant": true
    },
    {
      "inputs": [],
      "name": "addFunders",
      "outputs": [],
      "stateMutability": "payable",
      "type": "function",
      "payable": true
    },
    {
      "inputs": [
        {
          "internalType": "uint256",
          "name": "withDrawAmount",
          "type": "uint256"
        }
      ],
      "name": "withDraw",
      "outputs": [],
      "stateMutability": "nonpayable",
      "type": "function"
    },
    {
      "inputs": [
        {
          "internalType": "uint256",
          "name": "index",
          "type": "uint256"
        }
      ],
      "name": "getFunderAtIndex",
      "outputs": [
        {
          "internalType": "address",
          "name": "",
          "type": "address"
        }
      ],
      "stateMutability": "view",
      "type": "function",
      "constant": true
    },
    {
      "inputs": [],
      "name": "getAllFunders",
      "outputs": [
        {
          "internalType": "address[]",
          "name": "",
          "type": "address[]"
        }
      ],
      "stateMutability": "view",
      "type": "function",
      "constant": true
    },
    {
      "inputs": [],
      "name": "emitLog",
      "outputs": [
        {
          "internalType": "bytes32",
          "name": "",
          "type": "bytes32"
        }
      ],
      "stateMutability": "pure",
      "type": "function",
      "constant": true
    },
    {
      "inputs": [],
      "name": "test1",
      "outputs": [],
      "stateMutability": "nonpayable",
      "type": "function"
    }
  ],
  "bytecode": "0x608060405234801561001057600080fd5b50336000806101000a81548173ffffffffffffffffffffffffffffffffffffffff021916908373ffffffffffffffffffffffffffffffffffffffff1602179055506064600181905550610b8c806100686000396000f3fe6080604052600436106100a75760003560e01c80639da924fd116100645780639da924fd146101aa578063a9b435a4146101e7578063ae28f1ed146101f1578063af7f2c9b1461021c578063c218deca14610247578063f42c13bf14610284576100a7565b8063031b3677146100ac5780630a8e8e01146100e957806314174f33146101145780636b59084d1461013d5780636fbbb55d146101545780638da5cb5b1461017f575b600080fd5b3480156100b857600080fd5b506100d360048036038101906100ce9190610744565b6102af565b6040516100e0919061078c565b60405180910390f35b3480156100f557600080fd5b506100fe6102cf565b60405161010b91906107c0565b60405180910390f35b34801561012057600080fd5b5061013b60048036038101906101369190610807565b6102d8565b005b34801561014957600080fd5b5061015261036f565b005b34801561016057600080fd5b506101696103ff565b60405161017691906108f2565b60405180910390f35b34801561018b57600080fd5b506101946104f9565b6040516101a19190610923565b60405180910390f35b3480156101b657600080fd5b506101d160048036038101906101cc9190610807565b61051d565b6040516101de9190610923565b60405180910390f35b6101ef610550565b005b3480156101fd57600080fd5b50610206610670565b60405161021391906107c0565b60405180910390f35b34801561022857600080fd5b50610231610676565b60405161023e91906107c0565b60405180910390f35b34801561025357600080fd5b5061026e60048036038101906102699190610807565b61067c565b60405161027b9190610923565b60405180910390f35b34801561029057600080fd5b506102996106b9565b6040516102a69190610957565b60405180910390f35b60036020528060005260406000206000915054906101000a900460ff1681565b60006064905090565b8067016345785d8a0000811115610324576040517f08c379a000000000000000000000000000000000000000000000000000000000815260040161031b906109cf565b60405180910390fd5b3373ffffffffffffffffffffffffffffffffffffffff166108fc839081150290604051600060405180830381858888f1935050505015801561036a573d6000803e3d6000fd5b505050565b60008054906101000a900473ffffffffffffffffffffffffffffffffffffffff1673ffffffffffffffffffffffffffffffffffffffff163373ffffffffffffffffffffffffffffffffffffffff16146103fd576040517f08c379a00000000000000000000000000000000000000000000000000000000081526004016103f490610a61565b60405180910390fd5b565b6060600060025467ffffffffffffffff81111561041f5761041e610a81565b5b60405190808252806020026020018201604052801561044d5781602001602082028036833780820191505090505b50905060005b6002548110156104f1576004600082815260200190815260200160002060009054906101000a900473ffffffffffffffffffffffffffffffffffffffff168282815181106104a4576104a3610ab0565b5b602002602001019073ffffffffffffffffffffffffffffffffffffffff16908173ffffffffffffffffffffffffffffffffffffffff168152505080806104e990610b0e565b915050610453565b508091505090565b60008054906101000a900473ffffffffffffffffffffffffffffffffffffffff1681565b60046020528060005260406000206000915054906101000a900473ffffffffffffffffffffffffffffffffffffffff1681565b6000339050600360008273ffffffffffffffffffffffffffffffffffffffff1673ffffffffffffffffffffffffffffffffffffffff16815260200190815260200160002060009054906101000a900460ff1661066d576000600260008154809291906105bb90610b0e565b9190505590506001600360008473ffffffffffffffffffffffffffffffffffffffff1673ffffffffffffffffffffffffffffffffffffffff16815260200190815260200160002060006101000a81548160ff021916908315150217905550816004600083815260200190815260200160002060006101000a81548173ffffffffffffffffffffffffffffffffffffffff021916908373ffffffffffffffffffffffffffffffffffffffff160217905550505b50565b60015481565b60025481565b60006004600083815260200190815260200160002060009054906101000a900473ffffffffffffffffffffffffffffffffffffffff169050919050565b60007f48656c6c6f20576f726c64000000000000000000000000000000000000000000905090565b600080fd5b600073ffffffffffffffffffffffffffffffffffffffff82169050919050565b6000610711826106e6565b9050919050565b61072181610706565b811461072c57600080fd5b50565b60008135905061073e81610718565b92915050565b60006020828403121561075a576107596106e1565b5b60006107688482850161072f565b91505092915050565b60008115159050919050565b61078681610771565b82525050565b60006020820190506107a1600083018461077d565b92915050565b6000819050919050565b6107ba816107a7565b82525050565b60006020820190506107d560008301846107b1565b92915050565b6107e4816107a7565b81146107ef57600080fd5b50565b600081359050610801816107db565b92915050565b60006020828403121561081d5761081c6106e1565b5b600061082b848285016107f2565b91505092915050565b600081519050919050565b600082825260208201905092915050565b6000819050602082019050919050565b61086981610706565b82525050565b600061087b8383610860565b60208301905092915050565b6000602082019050919050565b600061089f82610834565b6108a9818561083f565b93506108b483610850565b8060005b838110156108e55781516108cc888261086f565b97506108d783610887565b9250506001810190506108b8565b5085935050505092915050565b6000602082019050818103600083015261090c8184610894565b905092915050565b61091d81610706565b82525050565b60006020820190506109386000830184610914565b92915050565b6000819050919050565b6109518161093e565b82525050565b600060208201905061096c6000830184610948565b92915050565b600082825260208201905092915050565b7f43616e27742072656d6f7665206d6f7265207468616e20302e31206574686572600082015250565b60006109b9602083610972565b91506109c482610983565b602082019050919050565b600060208201905081810360008301526109e8816109ac565b9050919050565b7f596f7520646f6e27742068617665207065726d697373696f6e2064756d62206660008201527f75636b0000000000000000000000000000000000000000000000000000000000602082015250565b6000610a4b602383610972565b9150610a56826109ef565b604082019050919050565b60006020820190508181036000830152610a7a81610a3e565b9050919050565b7f4e487b7100000000000000000000000000000000000000000000000000000000600052604160045260246000fd5b7f4e487b7100000000000000000000000000000000000000000000000000000000600052603260045260246000fd5b7f4e487b7100000000000000000000000000000000000000000000000000000000600052601160045260246000fd5b6000610b19826107a7565b91507fffffffffffffffffffffffffffffffffffffffffffffffffffffffffffffffff8203610b4b57610b4a610adf565b5b60018201905091905056fea26469706673582212206d78ad66bda0208908a3d037c6cd3a76364048c91252dfa756f50b4c0f3c7cab64736f6c634300080f0033",
  "immutableReferences": {},
  "source": "// SPDX-License-Identifier: MIT\npragma solidity >=0.4.22 <0.9.0;\nimport \"./Owned.sol\";\nimport \"./Logger.sol\";\nimport \"./IFaucet.sol\";\n\ncontract Faucet is Owned, Logger ,IFaucet {\n    // Think mapping as key-value pair.\n    uint256 public numOfFunders;\n    mapping(address => bool) public funders;\n    mapping(uint256 => address) public lutfunders;\n\n    modifier limitWithDraw(uint256 withDrawAmount) {\n        require(\n            withDrawAmount <= 100000000000000000,\n            \"Can't remove more than 0.1 ether\"\n        );\n        _;\n    }\n\n    function addFunders() external payable {\n        address funder = msg.sender;\n        if (!funders[funder]) {\n            uint256 index = numOfFunders++;\n            funders[funder] = true;\n            lutfunders[index] = funder;\n        }\n    }\n\n    function withDraw(uint256 withDrawAmount)\n        external\n        limitWithDraw(withDrawAmount)\n    {\n        payable(msg.sender).transfer(withDrawAmount);\n    }\n\n    function getFunderAtIndex(uint256 index) external view returns (address) {\n        return lutfunders[index];\n    }\n\n    function getAllFunders() external view returns (address[] memory) {\n        address[] memory _funders = new address[](numOfFunders);\n        for (uint256 i = 0; i < numOfFunders; i++) {\n            _funders[i] = lutfunders[i];\n        }\n        return _funders;\n    }\n    function emitLog() public override pure returns(bytes32) {\n        return \"Hello World\";\n    }\n    function test1() external isOwner {\n        // some logic that only admin can do!\n    }\n}\n\n// const instance = await Faucet.deployed()\n// instance.addFunders({ from:accounts[8] , value:\"510000000000000000\"})\n// instance.withDraw(\"1000000000000000000\",{from:\"0xbd1E9c0Da6D0D13f07Df720CeA98F2B4c0d73E62\"})\n",
  "sourcePath": "/Users/ninadsonawane/Desktop/Blockchain/bkc-projects/faucet-application/contracts/FaucetContract.sol",
  "compiler": {
    "name": "solc",
    "version": "0.8.15+commit.e14f2714.Emscripten.clang"
  },
  "schemaVersion": "3.4.8",
  "updatedAt": "2022-07-10T07:00:02.613Z",
  "networkType": "ethereum",
  "devdoc": {
    "kind": "dev",
    "methods": {},
    "version": 1
  },
  "userdoc": {
    "kind": "user",
    "methods": {},
    "version": 1
  }
}